:100C4600456E7465722070617373776F72643A00D3
:100C56004163636573732044656E6965642E2E0077
:100C66005761697420666F722000207365632E2EAB
:100C760000416363657373204772616E7465642E09
:0D0C86002E2E004C6F636B7320696E2000F2
:100D4500051E373031380005192A2A2A2A000217CC
:020D550000009C
:100CE400120D1ED2AFD2A8D2887F80120D787BFF5E
:100CF4007A0C7946120C997FC7120D78120800807D
:010D0400E806
:10080000D292D291D290D293D294D295C296209085
:10081000263090FD7F31120D5DC3E5189404E51775
:1008200064809480500774192518F876310518E50E
:10083000187002051780502091263091FD7F3212EA
:100840000D5DC3E5189404E5176480948050077427
:10085000192518F876320518E51870020517802753
:100860002092243092FD7F33120D5DC3E51894046D
:10087000E51764809480500774192518F8763305BD
:1008800018E51870020517D296C295209026309070
:10089000FD7F34120D5DC3E5189404E51764809460
:1008A00080500774192518F876340518E518700279
:1008B000051780502091263091FD7F35120D5DC3C4
:1008C000E5189404E517648094805007741925187E
:1008D000F876350518E51870020517802720922450
:1008E0003092FD7F36120D5DC3E5189404E5176460
:1008F000809480500774192518F876360518E51885
:1009000070020517D295C2942090263090FD7F3753
:10091000120D5DC3E5189404E517648094805007B8
:1009200074192518F876370518E518700205178030
:10093000502091263091FD7F38120D5DC3E518944B
:1009400004E51764809480500774192518F87638E8
:100950000518E5187002051780272092243092FDB3
:100960007F39120D5DC3E5189404E5176480948007
:10097000500774192518F876390518E5187002051E
:1009800017D294C2932090253090FD7F2A120D5DDE
:10099000C3E5189404E51764809480500774192502
:1009A00018F8762A0518E5187002051722209125F7
:1009B0003091FD7F30120D5DC3E5189404E5176496
:1009C000809480500774192518F876300518E518BA
:1009D00070020517222092243092FD7F23120D5DB4
:1009E000C3E5189404E517648094805007741925B2
:0D09F00018F876230518E518700205172287
:100D1E007F38120D787F0C120D787F06120D787FBA
:040D2E0001020D7839
:0C0D78008F80C2A0D2A1120D69C2A1227E
:050D5800E50F2430FF4F
:0C0D5D008F80D2A0D2A1120D69C2A12289
:060C93007BFF7A0C797072
:100C99008B148A158916AB14AA15A916120D0560AD
:100CA900130516E5167002051514F9120D05FF1244
:050CB9000D5D80E22248
:0E0D6900E4FFFE0FBF00010EBE03F8BFE8F569
:010D77002259
:040CBE008E108F11F4
:100CC200E4F512F513F512F513C3E5139511E512C8
:100CD2009510500D120D320513E51370EC051280BC
:010CE200E829
:010CE30022EE
:100D3200758901758CFC758D66D28C308DFDC28CE7
:030D4200C28D223D
:030003000209FDF2
:1009FD00C0E0C0F0C083C082C0D075D000C000C0C0
:0D0A0D0001C002C003C004C005C006C00740
:100A1A00750800750900750A1E750B00750C0075BE
:100A2A000D19E5186404451760637F80120D787B01
:100A3A00FF7A0C7956120C997FC0120D787BFF7AD7
:100A4A000C7966120C99750E00750F057FC9120D87
:100A5A0078120D58120C937FDE7E03120CBEE50F3E
:100A6A00150F7002150EC3E50E6480948050DD7573
:100A7A000E00750F007419250FF8762A050FE50F79
:100A8A007002050E6404450E70EB020B94AB08AAC3
:100A9A0009A90A120D05FF7003020B34AB0BAA0C4D
:100AAA00A90D120D05FE7003020B346F60637F807F
:100ABA00120D787BFF7A0C7956120C997FC0120DB1
:100ACA00787BFF7A0C7966120C99750E00750F0502
:100ADA007FC9120D78120D58120C937FB67E03123D
:100AEA000CBEE50F150F7002150EC3E50E64809457
:100AFA008050DD750E00750F007419250FF8762ADF
:100B0A00050FE50F7002050E6404450E70EB020B2B
:100B1A00947401250AF50AE43509F5097401250DCD
:100B2A00F50DE4350CF50C020A977F80120D787BDF
:100B3A00FF7A0C7977120C997FC0120D787BFF7AB5
:100B4A000C7989120C99750E00750F057FC9120D63
:100B5A0078120D58120C937FB67E03120CBEE50F65
:100B6A00150F7002150EC3E50E6480948050DD7572
:100B7A000E00750F007419250FF8762A050FE50F78
:100B8A007002050E6404450E70EB751700751800A7
:050B9A007F01120D783F
:100B9F00D007D006D005D004D003D002D001D000AA
:0B0BAF00D0D0D082D083D0F0D0E03254
:03000000020BBA36
:0C0BBA00787FE4F6D8FD758122020C0162
:100D0500BB010689828A83E0225002E722BBFE02EC
:090D1500E32289828A83E493221F
:100BC600020CE4E493A3F8E493A34003F68001F255
:100BD60008DFF48029E493A3F85407240CC8C33330
:100BE600C4540F4420C8834004F456800146F6DFFF
:100BF600E4800B0102040810204080900D45E47E3D
:100C0600019360BCA3FF543F30E509541FFEE493F3
:100C1600A360010ECF54C025E060A840B8E493A3BA
:100C2600FAE493A3F8E493A3C8C582C8CAC583CAE5
:100C3600F0A3C8C582C8CAC583CADFE9DEE780BE9D
:010D5700009B
:00000001FF
